:060000000A128A11122809
:10000800FE00030EF1000408F2000A08F300831250
:1000180003137F08F4000A128A111C290A128A1194
:100028005A298316031305148514FF308600861099
:10003800061186110B168B100117831203139F17D5
:10004800831603131F17831203131F139F111F1205
:100058009F12831603139F139F151F159F141F10BC
:100068008112011281110115811401140B118B16D3
:10007800831203130C13831603130C170B178B1718
:100088008312031386140D30F700AF30F600C13029
:10009800F500F50B4D28F60B4D28F70B4D2864009D
:1000A8008312031386100D30F700AF30F600C1300D
:1000B800F500F50B5D28F60B5D28F70B5D2864004D
:1000C8008312031386140D30F700AF30F600C130E9
:1000D800F500F50B6D28F60B6D28F70B6D286400FD
:1000E8008312031386100D30F700AF30F600C130CD
:1000F800F500F50B7D28F60B7D28F70B7D286400AD
:100108008312031306150D30F700AF30F600C13027
:10011800F500F50B8D28F60B8D28F70B8D2864005C
:100128008312031306110D30F700AF30F600C1300B
:10013800F500F50B9D28F60B9D28F70B9D2864000C
:100148008312031306150D30F700AF30F600C130E7
:10015800F500F50BAD28F60BAD28F70BAD286400BC
:100168008312031306110D30F700AF30F600C130CB
:10017800F500F50BBD28F60BBD28F70BBD2864006C
:100188008312031386150D30F700AF30F600C13027
:10019800F500F50BCD28F60BCD28F70BCD2864001C
:1001A8008312031386110D30F700AF30F600C1300B
:1001B800F500F50BDD28F60BDD28F70BDD286400CC
:1001C8008312031386150D30F700AF30F600C130E7
:1001D800F500F50BED28F60BED28F70BED2864007C
:1001E8008312031386110D30F700AF30F600C130CB
:1001F800F500F50BFD28F60BFD28F70BFD2864002C
:10020800831203131F140829F91F0B290C290E291F
:1002180086150F298611791F122913291529061504
:10022800082906110829082908290A128A111228FA
:100238008B1C1F292029262908309F061F129F1270
:100248008B1026290C1F29292A2930291E08F0007D
:100258007008F9000C1330290B1D332934294F2954
:100268000130F0007008F8077808993A031D3D2915
:100278003E294D291F157A1842294629831203134E
:10028800861449298312031386100130FA06F801EF
:100298004D290B114F297408FF0073088A00720852
:1002A8008400710E8300FE0E7E0E0900FA01F8012B
:0A02B800F90183010A128A111528CA
:02400E003AFF77
:00000001FF
