:060000000A128A11122809
:10000800FE00030EF0000408F1000A08F200831253
:1000180003137F08F3000A128A11A3280A128A110F
:10002800AE28831603130514FF30860086100611C8
:100038008611831203139F17831603131F17831246
:1000480003131F139F111F129F12831603139F136D
:100058009F151F159F141F10831203130C1383166B
:1000680003130C130B178B178312031386140D300D
:10007800F600AF30F500C130F400F40B4128F50B61
:100088004128F60B412864008312031386100D30B3
:10009800F600AF30F500C130F400F40B5128F50B31
:1000A8005128F60B512864008312031386140D306F
:1000B800F600AF30F500C130F400F40B6128F50B01
:1000C8006128F60B612864008312031386100D3033
:1000D800F600AF30F500C130F400F40B7128F50BD1
:1000E8007128F60B71286400831203131F141F155F
:1000F8007D281F157F281F19822883287F28842898
:100108001E08F4007408F700F71F8B288C288E2827
:1001180086158F288611771F92289328952806150B
:1001280096280611F71E99289A289C2886147D2857
:1001380086107D287D287D280A128A1112287308C6
:10014800FF0072088A0071088400700E8300FE0E9A
:0E0158007E0E0900F70183010A128A11152894
:02400E003AFF77
:00000001FF
