:020000040000FA
:100000000A128A111228FF3FFE00030EF3000408B3
:10001000F4000A08F500831203137F08F6000A169D
:100020008A112E2A0A168A15252F83160313AD006E
:10003000A030A3002308AE00482F3F08253A03193B
:10004000222823282A283F080A168A1519270A1267
:100050008A11482F83160313AF01B00136285E2F93
:1000600030154E284E284E28482F4E280130AD0717
:10007000FF302D0784000A168A1100200A128A1107
:10008000BF00003A03195E2F643A03194E28023A62
:10009000031930280F3A03194E28482F00302F0536
:1000A000A30007303005A4002408230403195928AD
:1000B0005A28342E0630B4000030B5002E088400D3
:1000C00083130008BC00840A0008BD00840A0008ED
:1000D000BE000330A3002308AE073C0883120313BD
:1000E000A000831603133D0883120313A100831697
:1000F00003133E0883120313A2000030A300003054
:10010000A4000030A5000A168A1150210A128A1193
:1001100003188B288C28BA28831603133C088312F3
:100120000313A000831603133D0883120313A100D9
:10013000831603133E0883120313A2000A128A15C2
:1001400000200A128A118312031320088316031356
:10015000BC0083120313210883160313BD0083120E
:100160000313220883160313BE000330AF040030CC
:10017000B004BA2883160313BA01BB013E083D043C
:100180003C040319C428C528EF29BC30840083131C
:100190000008A300840A0008A400840A0008A5003F
:1001A000840A0008A6000F300310A60CA50CA40CAE
:1001B000A30CFF3E031DD428FF302305A700003009
:1001C0002405A8002708823EBA0028080318013E2B
:1001D000FF3EBB00FF30BA070318BB0AFF30BB0766
:1001E000033083120313A0000030A1008316031311
:1001F0003B0883120313A301A307831603133A08D2
:1002000083120313A201A2070A168A11BC200A1244
:100210008A1183120313210883160313BB01BB0742
:1002200083120313200883160313BA01BA070A3096
:1002300083120313A7000030A800831603133B08A2
:1002400083120313AA01AA07831603133A08831221
:100250000313A901A9070A168A119F220A128A11FB
:1002600083120313280883160313BB01BB078312F1
:100270000313270883160313BA01BA07BB1F4129CA
:1002800042294929FF30BA070318BB0AFF30BB07D0
:1002900049293A03FF3A0A128A1529250A128A11B6
:1002A00083120313520883160313B100831203133E
:1002B000530883160313B2008312031354088316E2
:1002C0000313B3003C0883120313C2008316031305
:1002D0003D0883120313C300831603133E088312E1
:1002E0000313C40083160313310883120313C500DC
:1002F00083160313320883120313C60083160313F5
:10030000330883120313C7000A128A150E200A123B
:100310008A1183120313420883160313B100831258
:100320000313430883160313B20083120313440814
:1003300083160313B300310883120313A00083163E
:100340000313320883120313A10083160313330827
:1003500083120313A2000030A3008030A4003F30BA
:10036000A5000A168A1150210A128A110318B92908
:10037000BA29C329FF3083160313BA070318BB0A2F
:10038000FF30BB07EF2983160313310883120313D1
:10039000A00083160313320883120313A1008316EF
:1003A0000313330883120313A2000030A30020308C
:1003B000A4004130A5000A168A1150210A128A11A0
:1003C000031CE329E429EF29013083160313BA073C
:1003D0000318BB0A0030BB07EF29EF29EF2983166A
:1003E00003133508803AFF0080307F02031DFA298D
:1003F0000D3034020318FD29FE29382A8316031311
:1004000034080A128A15FC200A128A118312031377
:100410005F08D2006008D3006108D400831603137C
:100420003C0883120313D500831603133D0883127F
:100430000313D600831603133E0883120313D70059
:100440000A168A1165250A128A11831203135208AB
:1004500083160313BC00831203135308831603137C
:10046000BD0083120313540883160313BE00382AF9
:10047000831603133B08803AFF0080307F02031D80
:10048000432A0A303A020318462A472A7F2A83164B
:1004900003133E083D043C0403194F2A502A5A2BEB
:1004A0003C0883120313B400831603133D08831220
:1004B0000313B500831603133E0883120313B6001B
:1004C0000A168A1115230A128A1183120313370898
:1004D000360435043404031D6E2A6F2A5A2B831602
:1004E00003133B08803AFF0080307F02031D7A2A05
:1004F00002303A02031C7D2A7E2A5A2B7F2A831659
:100500000313310883120313A00083160313320868
:1005100083120313A10083160313330883120313FA
:10052000A2007030A3008930A4004030A5000A1654
:100530008A1150210A128A1103189F2AA02AA92A77
:10054000F73083160313BA070318BB0AFF30BB0743
:10055000B22AF83083160313BA070318BB0AFF3018
:10056000BB07B22A3A080A128A1529250A128A11EB
:1005700083120313520883160313B100831203136B
:10058000530883160313B20083120313540883160F
:100590000313B3000B2B3C0883120313A000831634
:1005A00003133D0883120313A100831603133E08AF
:1005B00083120313A200831603133108831203135B
:1005C000A30083160313320883120313A4008316B7
:1005D0000313330883120313A5000A168A11AB26EE
:1005E0000A128A1183120313230883160313AC0023
:1005F00083120313220883160313AB008312031321
:10060000210883160313AA008312031320088316FC
:100610000313A9004B2B3C0883120313A00083167D
:1006200003133D0883120313A100831603133E082E
:1006300083120313A20083160313310883120313DA
:10064000A30083160313320883120313A400831636
:100650000313330883120313A5000A168A11832497
:100660000A128A1183120313230883160313AC00A2
:1006700083120313220883160313AB0083120313A0
:10068000210883160313AA0083120313200883167C
:100690000313A9004B2B2C08B9002B08B8002A081B
:1006A000B7002908B6000030BC000030BD000030A3
:1006B000BE00D82B831603133C0883120313B40027
:1006C000831603133D0883120313B5008316031327
:1006D0003E0883120313B6000A168A1115230A1264
:1006E0008A1183120313370883160313B900831288
:1006F0000313360883160313B80083120313350857
:1007000083160313B70083120313340883160313ED
:10071000B600390883120313AB008316031338089D
:1007200083120313AA0083160313370883120313DB
:10073000A90083160313360883120313A8000A16B0
:100740008A156C270A128A11831203132808DF0006
:100750002908E0002A08E100831603133C088312ED
:100760000313E200831603133D0883120313E3000F
:10077000831603133E0883120313E4000A128A113E
:10078000DC270A128A11831203135F0883160313EE
:10079000BC0083120313600883160313BD00831289
:1007A0000313610883160313BE00BA01BB01D82BE3
:1007B000BF010314BF0D3F080A3A031DE02BE12BD4
:1007C000E32B262C262C3F08A30001300310A30D99
:1007D000FF3E031DE62B0310230D013E84000A1685
:1007E0008A1100200A128A11A4000A168A11002018
:1007F0000A128A11A5000A168A1100200A128A110B
:10080000A6000A168A1100200A128A11A7002708DA
:100810003902031D152C26083802031D152C250846
:100820003702031D152C240836020318182C192C26
:100830001B2C262C262C0130A3002308BF073F08C1
:100840000A3A031D242C252CE32B262C03302F05DC
:10085000A30000303005A400240823040319312C20
:10086000322CA22C2D300A168A1519270A128A1149
:10087000A22CA22C003083120313B1000030B00070
:100880000030AF000A30AE00831603133F08A30008
:1008900001300310A30DFF3E031D492C0310230D4F
:1008A000013E84000A168A1100200A128A1183125E
:1008B0000313A0000A168A1100200A128A11A1004F
:1008C0000A168A1100200A128A11A2000A168A1139
:1008D00000200A128A11A300831603133908831219
:1008E0000313A70083160313380883120313A6000B
:1008F00083160313370883120313A500831603130B
:10090000360883120313A4000A168A11BE210A12A4
:100910008A11831203132308B5002208B4002108AA
:10092000B3002008B2000A168A15A2270A128A11FB
:10093000831203132E08303E0A168A1519270A124D
:100940008A11A22CFF3083160313A3002308BF07CC
:100950003F08FF3A031DAD2CAE2C3A2CBF2CBF2C08
:1009600030300A168A1519270A128A11FF308316A9
:100970000313BA070318BB0AFF30BB07BF2C3B08A1
:10098000803AFF0080307F02031DC82C01303A02FC
:100990000318CB2CCC2CB02CCD2C8316031335088C
:1009A000803AFF0080307F02031DD82C09303402CA
:1009B000031CDB2CDC2CE32C083083160313A30070
:1009C0002308BF00E92C831603133408A30023086F
:1009D000BF003F08A300A401A31BA4032308B40283
:1009E0002408031CB503B5023F08031DF82CFF2C97
:1009F0002E300A168A1519270A128A11FF2C83161F
:100A000003133F080A128A1529250A128A11831234
:100A100003135208C5005308C6005408C7008316C4
:100A200003133C0883120313C200831603133D080B
:100A300083120313C300831603133E0883120313A8
:100A4000C4000A128A150E200A128A118312031397
:100A50004208B4004308B5004408B6000A168A11DB
:100A600015230A128A1183120313370883160313FE
:100A7000B90083120313360883160313B8008312D8
:100A80000313350883160313B700831203133408C6
:100A900083160313B600112E003083120313B10026
:100AA0000030B0000030AF000A30AE0083160313F0
:100AB0003F08A30001300310A30DFF3E031D5B2D73
:100AC0000310230D013E84000A168A1100200A1229
:100AD0008A1183120313A0000A168A1100200A1239
:100AE0008A11A1000A168A1100200A128A11A20096
:100AF0000A168A1100200A128A11A3008316031312
:100B0000390883120313A7008316031338088312CE
:100B10000313A60083160313370883120313A500DB
:100B200083160313360883120313A4000A168A11CE
:100B3000BE210A128A11831203132308B50022086A
:100B4000B4002108B3002008B2000A168A15A227B3
:100B50000A128A11831203132E08303E0A168A15D0
:100B600019270A128A11831603133F08A3000130C4
:100B70000310A30DFF3E031DB82D0310230D013EEE
:100B800084000A168A1100200A128A1183120313A4
:100B9000AE000A168A1100200A128A11AF000A1646
:100BA0008A1100200A128A11B0000A168A11002048
:100BB0000A128A11B1008316031339088312031332
:100BC000B50083160313380883120313B400831689
:100BD0000313370883120313B30083160313360875
:100BE00083120313B2000A168A15A2270A128A1169
:100BF00083120313310883160313B90083120313FE
:100C0000300883160313B800831203132F088316CA
:100C10000313B700831203132E0883160313B600C1
:100C2000112EFF30A3002308BF073F08FF3A031D22
:100C30001A2E1B2E4C2D2C2E2C2E30300A168A15D7
:100C400019270A128A11FF3083160313B4070318F9
:100C5000B50AFF30B5072C2E35083404031D312E9C
:100C6000322E1D2E482F482F2E0884008313000893
:100C7000A300840A0008A4002308B6002408B700D3
:100C80000030B71BFF30B800B9000230A3002308C2
:100C9000AE07B91F4C2E4D2E5D2E0330AF04003031
:100CA000B004B609B709B809B909B60A0319B70AF1
:100CB0000319B80A0319B90A5D2EBF010314BF0D49
:100CC0003F080A3A031D652E662E682EAB2EAB2E0A
:100CD0003F08A30001300310A30DFF3E031D6B2E40
:100CE0000310230D013E84000A168A1100200A1207
:100CF0008A11A4000A168A1100200A128A11A5007E
:100D00000A168A1100200A128A11A6000A168A11F0
:100D100000200A128A11A70027083902031D9A2E03
:100D200026083802031D9A2E25083702031D9A2E25
:100D30002408360203189D2E9E2EA02EAB2EAB2E1D
:100D40000130A3002308BF073F080A3A031DA92E5C
:100D5000AA2E682EAB2E03302F05A30000303005DD
:100D6000A400240823040319B62EB72EBE2E2D305E
:100D70000A168A1519270A128A11BE2E8316031322
:100D80003F08B400B501B41BB503342F0030831203
:100D90000313B1000030B0000030AF000A30AE00E5
:100DA000831603133408A30001300310A30DFF3E84
:100DB000031DD52E0310230D013E84000A168A114F
:100DC00000200A128A1183120313A0000A168A1146
:100DD00000200A128A11A1000A168A1100200A12A4
:100DE0008A11A2000A168A1100200A128A11A30091
:100DF00083160313390883120313A7008316031302
:100E0000380883120313A6008316031337088312CE
:100E10000313A50083160313360883120313A400DB
:100E20000A168A11BE210A128A118312031323089B
:100E3000B5002208B4002108B3002008B2000A1649
:100E40008A15A2270A128A11831203132E08303E34
:100E500083160313A4002408BF003F080A168A154E
:100E600019270A128A11342FFF3083160313B4078F
:100E70000318B50AFF30B507FF303506031D422FB2
:100E8000FF303406031D452F462FC62E482F482F0E
:100E9000013083160313AD07FF302D0784000A16B7
:100EA0008A1100200A128A11A3002308BF00BF087C
:100EB000031D5B2F5C2F1D285E2F5E2F0800831201
:100EC00003132308031D652F6D2F2208210420041E
:100ED000031D6B2F6C2F832F6D2F0030A00000306F
:100EE000A1000030A200DB2FDB2F832F0130A500F3
:100EF0002508A30701300310A20CA10CA00CFF3E93
:100F0000031D7B2F832FFE302205031D882F892F81
:100F1000762FA12FA12F0130A5002508A3070130AE
:100F2000A007003003180130A1070030031801307A
:100F3000A20701300310A20CA10CA00CFF3E031D60
:100F40009A2FFF302205031DA62FA72F8B2FB42F1A
:100F5000B42F0130A30201300310A00DA10DA20D8A
:100F6000FF3E031DAC2FB42FA11FB72FB82FA92F01
:100F70002318BB2FBC2FC22FFF30A0057F30A10547
:100F8000FF30A2050310A30C2308A500A601A701AA
:100F900010300310A50DA60DA70DFF3E031DC92F90
:100FA0002508A0042608A1042708A2042408031D7C
:100FB000DA2FDB2FA2170800803083120313E1061B
:100FC0006208D2006308D3006408D4005F08D5002B
:100FD0006008D6006108D7000A168A1165250A1232
:100FE0008A11831203135208DF005308E0005408EB
:100FF000E100FA2F0800FF3FFF3FFF3FFF3FFF3FA9
:101000008312031322082104200403190828092845
:101010000C288030A2060C280D2808008312031328
:101020004208C8004308C9004408CA000310490D1B
:101030004A0DCB004B08CC00CC08031D20282128EA
:1010400029280030C2000030C3000030C400FB2853
:10105000FB284508C8004608C9004708CA00031015
:10106000490D4A0DCB004B08D100D108031D39288A
:101070003A2842280030C2000030C3000030C400CB
:10108000FB28FB2851087B3EC8004808CC074208D3
:10109000C8004308C9004408CA0010300310CA0C35
:1010A000C90CC80CFF3E031D4E284808CB004B0856
:1010B000D1004508C8004608C9004708CA001030DA
:1010C0000310CA0CC90CC80CFF3E031D6028480859
:1010D000CB004B08D1068030C8004808D105C317A3
:1010E000C617FF30C505FF30C6050030C705003004
:1010F000CD000030CE000030CF000730C8004808D7
:10110000D0008228421C8528862897284508CD07CC
:10111000460803110318460A03198F28CE0747080B
:1011200003110318470A03199628CF07972801309F
:101130000310C40CC30CC20CFF3E031D98280130E1
:101140000310C50DC60DC70DFF3E031DA0280130BD
:10115000D002031DAC28AD288228AE280930C80073
:101160004808D000B328421CB628B728C82845082C
:10117000CD07460803110318460A0319C028CE07F5
:10118000470803110318470A0319C728CF07C828BF
:1011900001300310C40CC30CC20CFF3E031DC92850
:1011A00001300310CF0CCE0CCD0CFF3E031DD12817
:1011B0000130D002031DDD28DE28B328DF284D08CA
:1011C000A0004E08A1004F08A2004C08C800480823
:1011D000A3005108C9004908A4000A128A115F2718
:1011E0000A128A15831203132008C2002108C300C3
:1011F0002208C400FB28080083120313EE006E309F
:101200006E02031C04290529EA290330E200620862
:10121000B0000A30A7000030A8006E08E300E40127
:101220006308A2006408A3006430A0000030A1009D
:101230000A168A11E8200A128A158312031321085C
:10124000AA01AA072008A901A9070A168A119F2244
:101250000A128A15831203132708093E0A168A15F3
:1012600037270A128A15293E84000A168A1100209F
:101270000A128A1583120313C2000A168A1100206B
:101280000A128A15C3000A168A1100200A128A154A
:10129000C4000330E5006508B0006430A7000030EA
:1012A000A8006E08E600E7016608A9006708AA0022
:1012B0000A168A119F220A128A158312031327081D
:1012C000123E0A168A1537270A128A15293E84000B
:1012D0000A168A1100200A128A1583120313C50008
:1012E0000A168A1100200A128A15C6000A168A11E7
:1012F00000200A128A15C7000A128A150E200A1247
:101300008A15831203134208EB004308EC004408DB
:10131000ED000330E2006208B0006E08E300E40173
:101320006308A2006408A3000A30A0000030A100F6
:101330000A168A11E8200A128A158312031320085C
:101340000A168A1537270A128A15293E84000A16BA
:101350008A1100200A128A1583120313C2000A168A
:101360008A1100200A128A15C3000A168A11002069
:101370000A128A15C4006B08C5006C08C6006D0807
:10138000C7000A128A150E200A128A158312031347
:101390004208E8004308E9004408EA000030C200BF
:1013A0000030C3003F30C4006808C5006908C600AB
:1013B0006A08C7000A128A150E200A128A158312BB
:1013C00003134208DF004308E0004408E100B22AAA
:1013D000B22A7E2A0B306E02031CEF29F0297E2AE6
:1013E0000330E2006208B0006E08E300E401630825
:1013F000A2006408A3000A30A0000030A1000A1671
:101400008A11E8200A128A158312031320080A168B
:101410008A1537270A128A15293E84000A168A116E
:1014200000200A128A1583120313C2000A168A11B9
:1014300000200A128A15C3000A168A1100200A1217
:101440008A15C4000330E5006508B0000A30A70023
:101450000030A8006E08E600E7016608A9006708EA
:10146000AA000A168A119F220A128A1583120313F0
:101470002708093E0A168A1537270A128A15293EB7
:1014800084000A168A1100200A128A158312031397
:10149000C5000A168A1100200A128A15C6000A160B
:1014A0008A1100200A128A15C7000A128A150E2016
:1014B0000A128A15831203134208EB004308EC005A
:1014C0004408ED000030C2000030C3003F30C400CB
:1014D0006B08C5006C08C6006D08C7000A128A15A3
:1014E0000E200A128A15831203134208DF004308F4
:1014F000E0004408E100B22AB22A7E2A0030C2008D
:101500000030C3003F30C4000330E2006208B00086
:101510006E080A168A1537270A128A15293E840092
:101520000A168A1100200A128A1583120313C500B5
:101530000A168A1100200A128A15C6000A168A1194
:1015400000200A128A15C7000A128A150E200A12F4
:101550008A15831203134208DF004308E0004408A1
:10156000E100B22A0800831603130514FF30860039
:101570008610061186118112011281110115811444
:1015800001140B118B160B178B1787170717813058
:1015900099009030831203139800243083160313AC
:1015A0009800831203139F17831603131F178312C8
:1015B00003131F139F111F129F12831603139F13F0
:1015C0009F111F159F101F10831203130C138316F6
:1015D00003130C178312031386140D3083160313A1
:1015E000C200AF30C100C130C000C00BF52AC10B32
:1015F000F52AC20BF52A64008312031386100D30FE
:1016000083160313C200AF30C100C130C000C00B4D
:10161000072BC10B072BC20B072B6400831203138C
:1016200086140D3083160313C200AF30C100C130E1
:10163000C000C00B192BC10B192BC20B192B640056
:101640008312031386100D3083160313C200AF30CC
:10165000C100C130C000C00B2B2BC10B2B2BC20B08
:101660002B2B6400831203131F141F15372B8316B3
:1016700003134C08A101A1074B08A001A007A23049
:101680000A128A1115200A128A15003083120313D8
:10169000C200C830C3004230C400C030AC007F304C
:1016A000AD004430AE00831603134C0883120313BD
:1016B000A101A107831603134B0883120313A00192
:1016C000A0070530A2000030A3000A168A11BC2032
:1016D0000A128A15831203132108A901A9072008F9
:1016E000A801A8070A168A1551270A128A1583121B
:1016F00003132808AF002908B0002A08B1000A1611
:101700008A11BB230A128A15831203132C08C50001
:101710002D08C6002E08C7000A128A150E200A12CC
:101720008A1583120313420883160313C60083121B
:101730000313430883160313C700831203134408DB
:1017400083160313C8004608A0004708A1004808F4
:10175000A2008D300A128A1115200A128A15003053
:1017600083120313A000A030A1004130A200831611
:101770000313460883120313A300831603134708B9
:1017800083120313A4008316031348088312031360
:10179000A5000A168A1150210A128A150318D12BA6
:1017A000D22BD62B831203130615DA2B83120313C5
:1017B0000611DA2B0030C2002030C3004130C400D3
:1017C000C030AC007F30AD004430AE008316031350
:1017D0004A0883120313A101A107831603134908C2
:1017E00083120313A001A0070530A2000030A3005C
:1017F0000A168A11BC200A128A15831203132108C3
:10180000A901A9072008A801A8070A168A155127C7
:101810000A128A15831203132808AF002908B000A2
:101820002A08B1000A168A11BB230A128A158312EC
:1018300003132C08C5002D08C6002E08C7000A1285
:101840008A150E200A128A15831203134208831682
:101850000313C30083120313430883160313C40046
:1018600083120313440883160313C5004308A00022
:101870004408A1004508A20077300A128A111520F9
:101880000A128A1583160313430883120313A00058
:1018900083160313440883120313A1008316031352
:1018A000450883120313A2009A30A3009930A400C4
:1018B0003F30A5000A168A1150210A128A15031812
:1018C000622C632C672C8312031386111A2D831646
:1018D0000313430883120313A00083160313440861
:1018E00083120313A1008316031345088312031305
:1018F000A2009A30A3009930A4003F30A5000A1638
:101900008A1150210A128A15031C872C882CAD2CB1
:1019100083160313430883120313A00083160313D3
:10192000440883120313A10083160313450883128E
:101930000313A2009A30A3001930A4004030A50080
:101940000A168A1150210A128A150318A82CA92CEC
:10195000AD2C8312031386151A2D83160313430827
:1019600083120313A0008316031344088312031386
:10197000A10083160313450883120313A2009A30B3
:10198000A3001930A4004030A5000A168A11502186
:101990000A128A15031CCD2CCE2CF32C83160313AC
:1019A000430883120313A000831603134408831211
:1019B0000313A10083160313450883120313A20027
:1019C0009A30A3009930A4004030A5000A168A116D
:1019D00050210A128A150318EE2CEF2CF32C8312D7
:1019E000031386151A2D831603134308831203135A
:1019F000A00083160313440883120313A100831667
:101A00000313450883120313A2009A30A3009930F0
:101A1000A4004030A5000A168A1150210A128A1526
:101A2000031C132D142D1A2D8312031386151A2D42
:101A30001A2D1A2D77181D2D212D831203138614AC
:101A4000242D831203138610372B372B0A128A1189
:101A5000122883120313DA00DA1F2F2D302D992E4E
:101A6000DA09DA0A5A08803A123E031C382D392D59
:101A7000FF2D0330D5005508B0000A30A700003014
:101A8000A8005A08A200A301A21BA3036430A0006F
:101A90000030A1000A168A11E8200A128A15831262
:101AA00003132108AA01AA072008A901A9070A16F9
:101AB0008A119F220A128A15831203132708093EEE
:101AC0000A168A1537270A128A15293E84000A1633
:101AD0008A1100200A128A1583120313C2000A1603
:101AE0008A1100200A128A15C3000A168A110020E2
:101AF0000A128A15C4000330D6005608B0006430BC
:101B0000A7000030A8005A08A900AA01A91BAA032F
:101B10000A168A119F220A128A15831203132708B4
:101B2000123E0A168A1537270A128A15293E8400A2
:101B30000A168A1100200A128A1583120313C5009F
:101B40000A168A1100200A128A15C6000A168A117E
:101B500000200A128A15C7000A128A150E200A12DE
:101B60008A15831203134208D7004308D80044089B
:101B7000D9000330D5005508B0005A08A200A301CF
:101B8000A21BA3030A30A0000030A1000A168A118C
:101B9000E8200A128A158312031320080A168A15F0
:101BA00037270A128A15293E84000A168A11002056
:101BB0000A128A1583120313C2000A168A11002022
:101BC0000A128A15C3000A168A1100200A128A1501
:101BD000C4005708C5005808C6005908C7000A12B3
:101BE0008A150E200A128A15831203134208D200A6
:101BF0004308D3004408D400FF2FFF2F772E5A0844
:101C0000803A753E031C052E062E772E0330D50034
:101C10005508B0005A08A200A301A21BA3030A3072
:101C2000A0000030A1000A168A11E8200A128A15C5
:101C30008312031320080A168A1537270A128A15F9
:101C4000293E84000A168A1100200A128A1583127E
:101C50000313C2000A168A1100200A128A15C30053
:101C60000A168A1100200A128A15C4000330D60011
:101C70005608B0000A30A7000030A8005A08A90092
:101C8000AA01A91BAA030A168A119F220A128A1501
:101C9000831203132708093E0A168A1537270A12EA
:101CA0008A15293E84000A168A1100200A128A1514
:101CB00083120313C5000A168A1100200A128A151E
:101CC000C6000A168A1100200A128A15C7000A12D5
:101CD0008A150E200A128A15831203134208D200B5
:101CE0004308D3004408D400FF2FFF2F772E033082
:101CF000D5005508B0005A080A168A1537270A1267
:101D00008A15293E84000A168A1100200A128A15B3
:101D100083120313D2000A168A1100200A128A15B0
:101D2000D3000A168A1100200A128A15D400FF2F48
:101D3000FF2F5A08803A123E031C9F2EA02E662FBA
:101D40000330D5005508B0000A30A7000030A800C5
:101D50005A08A200A301A21BA3036430A000003014
:101D6000A1000A168A11E8200A128A1583120313A9
:101D70002108AA01AA072008A901A9070A168A11A1
:101D80009F220A128A15831203132708093E0A1696
:101D90008A1537270A128A15503E84000A168A11BE
:101DA00000200A128A1583120313C2000A168A1130
:101DB00000200A128A15C3000A168A1100200A128E
:101DC0008A15C4000330D6005608B0006430A7005E
:101DD0000030A8005A08A900AA01A91BAA030A16E4
:101DE0008A119F220A128A15831203132708123EB2
:101DF0000A168A1537270A128A15503E84000A16D9
:101E00008A1100200A128A1583120313C5000A16CC
:101E10008A1100200A128A15C6000A168A110020AB
:101E20000A128A15C7000A128A150E200A128A158C
:101E3000831203134208D7004308D8004408D9008E
:101E40000330D5005508B0005A08A200A301A21B18
:101E5000A3030A30A0000030A1000A168A11E8206E
:101E60000A128A158312031320080A168A153727C7
:101E70000A128A15503E84000A168A1100200A129E
:101E80008A1583120313C2000A168A1100200A124F
:101E90008A15C3000A168A1100200A128A15C40086
:101EA0005708C5005808C6005908C7000A128A1505
:101EB0000E200A128A15831203134208D200430827
:101EC000D3004408D400FF2FFF2FDE2F5A08803A9A
:101ED000753E031C6C2F6D2FDE2F0330D500550887
:101EE000B0005A08A200A301A21BA3030A30A0005D
:101EF0000030A1000A168A11E8200A128A158312FE
:101F0000031320080A168A1537270A128A15503E2D
:101F100084000A168A1100200A128A1583120313FC
:101F2000C2000A168A1100200A128A15C3000A1676
:101F30008A1100200A128A15C4000330D600560800
:101F4000B0000A30A7000030A8005A08A900AA0172
:101F5000A91BAA030A168A119F220A128A15831244
:101F600003132708093E0A168A1537270A128A150D
:101F7000503E84000A168A1100200A128A15831224
:101F80000313C5000A168A1100200A128A15C6001A
:101F90000A168A1100200A128A15C7000A128A1529
:101FA0000E200A128A15831203134208D200430836
:101FB000D3004408D400FF2FFF2FDE2F0330D500BD
:101FC0005508B0005A080A168A1537270A128A15CA
:101FD000503E84000A168A1100200A128A158312C4
:101FE0000313D2000A168A1100200A128A15D300A0
:101FF0000A168A1100200A128A15D400FF2F080041
:1020000010308A000408840A820700340134003446
:10201000003400340A3400340034003464340034B2
:1020200000340034E83403340034003410342734EE
:1020300000340034A0348634013400344034423457
:102040000F34003480349634983400340034E13452
:10205000F53405340034CA349A343B3400348034C7
:102060003F34CD34CC343D34D73423343C34123473
:1020700083343A34B734D1343834C634273437341F
:10208000383486343534C034D6343334CC342B34FD
:102090003234703489343034E734DB342E34E53470
:1020A0003C341E344234A2340D34003480343F3486
:1020B0000034203441340034C834423400347A349B
:1020C000443440341C3446345034C334473424340C
:1020D00074344934973418344B34BC34BE344C34E3
:1020E0006B346E344E340334153450347934AD349B
:1020F0006034F33449347134413420346C347534F1
:102100006D3469346E346F347334693464346134DB
:10211000643465342034653468343A3420342534EA
:102120006634003441342034743465346D34703492
:1021300065347234613474347534723461342034EB
:10214000653468343A3420342534663400344134FC
:1021500020344434413454344134203465346834B8
:102160003A342034253464340034FF3FFF3FFF3FCE
:10217000FF3FFF3FFF3FFF3F83120313A401A50171
:10218000C128201CC428C528CB282208A40703186E
:10219000A50A2308A50701300310A20DA30DFF3ED9
:1021A000031DCC2801300310A10CA00CFF3E031D21
:1021B000D32821082004031DDE28DF28C128E028B9
:1021C0002508A101A1072408A001A007E72808000D
:1021D00083120313A601A31FEE28EF28F828A209F3
:1021E000A309A20A0319A30AA6010314A60DF8283D
:1021F000A11FFB28FC280229A009A109A00A031994
:10220000A10A0229210820040319072908293E29C7
:10221000A5010314A50D182901300310A00DA10D6F
:10222000FF3E031D0D290130A4002408A50718292D
:10223000A11F1B291C290C291E291E292108230244
:10224000031D242920082202031C272928292F29BD
:102250002008A2022108031CA303A3022F29013096
:102260000310A10CA00CFF3E031D30290130A50274
:10227000031D3B293C291E293E293E292608031D12
:1022800042294829A209A309A20A0319A30A482935
:102290002308A101A1072208A001A0074F290800D7
:1022A00083120313A21F552956297C290030A6004A
:1022B0000030A7008030A8002009A9002109AA0049
:1022C0002209AB00A90A0319AA0A0319AB0A2908B3
:1022D000A6072A0803182A0F6E296F29A7072B08BB
:1022E00003182B0F74297529A8072608A0002708B2
:1022F000A1002808A2007C29A51F7F298029A629E2
:102300000030A6000030A7008030A8002309A900F3
:102310002409AA002509AB00A90A0319AA0A03196E
:10232000AB0A2908A6072A0803182A0F9829992911
:10233000A7072B0803182B0F9E299F29A8072608FB
:10234000A3002708A4002808A500A6298030A2061B
:102350008030A50625082202031DB4292408210285
:10236000031DB429230820020318B729B829BA2964
:102370000310BD290314BD29BD29080000308312B4
:102380000313AC000030AB000030AA000030A900FD
:1023900023082204210420040319CF29D029242A48
:1023A000AD010314AD0DE2290130A8000310A00D0A
:1023B000A10DA20DA30DA80BD6290130A800280855
:1023C000AD07E229A31FE529E629D429E829E82950
:1023D0000130A8000310A90DAA0DAB0DAC0DA80B80
:1023E000EA2923082702031DFF2922082602031DCC
:1023F000FF2921082502031DFF2920082402031CB0
:10240000022A032A132A2008A4022108031C210FF0
:10241000A5022208031C220FA6022308031C230F77
:10242000A7022914132A01300310A30CA20CA10C3B
:10243000A00CFF3E031D142A0130AD02031D212A0A
:10244000222AE829242A242A2C08A3002B08A200E7
:102450002A08A1002908A0002D2A08000B1D312AF6
:10246000322A4E2A0130F0007008F8077808993AAD
:10247000031D3B2A3C2A432A9F111F129F121F153E
:102480000130F706F80178084B3A031D482A492A1B
:102490004D2A9F151F129F121F150B110C1F512A39
:1024A000522A942A831603131E08F00006300310E4
:1024B000F00CFF3E031D572A831203131E08F10080
:1024C000F2010230FF000310F10DF20DFF0B632A41
:1024D0007008710783160313C90000300318013018
:1024E0007207CA001E08F00006300310F00CFF3E11
:1024F000031D752A831203131E08F100F201023036
:10250000FF000310F10DF20DFF0B812A7008710717
:1025100083160313CB000030031801307207CC0080
:10252000831203130C13942A7608FF0075088A009F
:1025300074088400730E8300FE0E7E0E0900831261
:102540000313AD01A81FA52AA62AAF2AA709A80927
:10255000A70A0319A80AAD010314AD0DAF2AAA1FDB
:10256000B22AB32ABD2AA909AA09A90A0319AA0AE3
:102570000130AB002B08AD06BD2AAE01AF01280823
:1025800027040319C42AC52A032BAC010314AC0D7C
:10259000D52A01300310A70DA80DFF3E031DCA2A3E
:1025A0000130AB002B08AC07D52AA81FD82AD92A9E
:1025B000C92ADB2ADB2A01300310AE0DAF0DFF3E26
:1025C000031DDC2A28082A02031DE82A27082902FD
:1025D000031CEB2AEC2AF42A2708A9022808031C6A
:1025E000AA03AA022E14F42A01300310A80CA70C87
:1025F000FF3E031DF52A0130AC02031D002B012B09
:10260000DB2A032B032B2D08031D072B0D2BAE09F3
:10261000AF09AE0A0319AF0A0D2B2F08A801A807AE
:102620002E08A701A707142B0800831203133408F0
:10263000B8003508B9003608BA000310390D3A0D54
:10264000BB003B08C100C108031D272B282B322BE0
:102650000030B7000030B6000030B5000030B400E4
:10266000BA2BBA2B3408B8003508B9003608BA00BE
:1026700017300310BA0CB90CB80CFF3E031D392BF0
:102680003808BB003B08BC00B517FF30B405FF306D
:10269000B5050030B6053408BD003508BE00360863
:1026A000BF00C0018E30C102C11F572B582B7D2B9C
:1026B0004108803A8F3E03185E2B5F2B6A2B003057
:1026C000B7000030B6000030B5000030B400BA2BBF
:1026D000BA2B6A2B01300310C00CBF0CBE0CBD0C12
:1026E000FF3E031D6B2B0130B8003808C107031DE6
:1026F0007A2B7B2B6A2BA12BA12B18304102031CB8
:10270000822B832B9A2B0030B7000030B6000030AC
:10271000B5000030B400BA2BBA2B9A2B0130B800A8
:102720000310BD0DBE0DBF0DC00DB80B902B0130B9
:10273000C1029A2BC108031D9E2B9F2B8E2BA12B10
:10274000A12B3C08031DA52BB12BBD09BE09BF0958
:10275000C009BD0A0319BE0A0319BF0A0319C00A3A
:10276000B12B4008B7003F08B6003E08B5003D0851
:10277000B400BA2B0800831203132F08B2003008EC
:10278000B3003108B4000310330D340DB500350823
:10279000BA00BA08031DCD2BCE2BD62B0030AC00CF
:1027A0000030AD000030AE00822C822C2C08B2002C
:1027B0002D08B3002E08B4000310330D340DB500FE
:1027C0003508BB00BB08031DE62BE72BEF2B0030C1
:1027D000AC000030AD000030AE00822C822C003006
:1027E000B7000030B8000030B90089303B07B200B4
:1027F0003208BA022F08B2003008B3003108B40022
:1028000010300310B40CB30CB20CFF3E031D012CAE
:102810003208B5003508BB002C08B2002D08B30003
:102820002E08B40010300310B40CB30CB20CFF3EF1
:10283000031D132C3208B5003508BB068030B200EA
:102840003208BB05B017FF30AF05FF30B0050030D0
:10285000B105AD17FF30AC05FF30AD050030AE055A
:102860001830B2003208B600352C01300310B70D15
:10287000B80DB90DFF3E031D362C2E083102031D85
:10288000472C2D083002031D472C2C082F02031C57
:102890004A2C4B2C572C2C08AF022D08031C2D0F53
:1028A000B0022E08031C2E0AB1023714572C013037
:1028B0000310AF0DB00DB10DFF3E031D582C0130BC
:1028C000B602031D642C652C352C662C3708A0003D
:1028D0003808A1003908A2003A08B2003208A30063
:1028E0003B08B3003308A4000A128A115F270A16B6
:1028F0008A11831203132008AC002108AD002208BE
:10290000AE00822C0800831203132008A6002108C1
:10291000A7002208A8000310270D280DA9002908E8
:10292000AF00AF08031D952C962CA02C0030A300FF
:102930000030A2000030A1000030A000642D642D02
:102940002308A6002408A7002508A8000310270DC7
:10295000280DA9002908AE00AE08031DB02CB12C2B
:10296000BB2C0030A3000030A2000030A1000030DA
:10297000A000642D642DA117FF30A005FF30A10534
:102980000030A205A417FF30A305FF30A4050030D6
:10299000A5050030AD000030AC000030AB000030C9
:1029A000AA007F30AF0298302E07A6002608AF029B
:1029B0001830A6002608AE00DD2C0130A60003105A
:1029C000AA0DAB0DAC0DAD0DA60BDF2C2508220218
:1029D000031DF02C24082102031DF02C23082002E3
:1029E000031CF32CF42C002D2308A0022408031C44
:1029F000240FA1022508031C250AA2022A14002D77
:102A000001300310A00DA10DA20DFF3E031D012DED
:102A10000130AE02031D0D2D0E2DDD2CAF1F112D2B
:102A2000122D372D2F08803A973E0318182D192D97
:102A3000242D0030A3000030A2000030A10000309F
:102A4000A000642D642D242D01300310AD0CAC0CBE
:102A5000AB0CAA0CFF3E031D252D0130A600260855
:102A6000AF07031D342D352D242D5B2D5B2D183024
:102A70002F02031C3C2D3D2D542D0030A3000030AF
:102A8000A2000030A1000030A000642D642D542D60
:102A90000130A6000310AA0DAB0DAC0DAD0DA60BB9
:102AA0004A2D0130AF02542DAF08031D582D592D6A
:102AB000482D5B2D5B2D2D08A3002C08A2002B08B0
:102AC000A1002A08A000642D0800831203135208F5
:102AD000D8005308D9005408DA000310590D5A0DD4
:102AE000DB005B08DE005508D8005608D9005708FF
:102AF000DA000310590D5A0DDB005B08DD005E089B
:102B0000031D832D942D5D085E020318882D892DE9
:102B10009C2D5E03FF3A5D07D80019305802031C54
:102B2000922D932D9C2D942D5508D2005608D3003C
:102B30005708D400AA2EAA2E5D08031DA02DB02D83
:102B40005E085D020318A52DA62DB12D5D03FF3A89
:102B50005E07D80019305802031CAF2DB02DB12DDF
:102B6000AA2E0630D8005808DC00D41FB82DB92D85
:102B7000BA2DDC17D71FBD2DBE2DBF2D5C17D31767
:102B8000FF30D205FF30D3050030D405D617FF3013
:102B9000D505FF30D6050030D7055D085E02031865
:102BA000D22DD32D042ED42D01300310D50DD60DEA
:102BB000D70DFF3E031DD52D0130DD025D085E06F9
:102BC0000319E32DE42DFC2D0130DC025C080739EC
:102BD000031DEB2DEC2DD42DFC2DFC2DFC2D0130F7
:102BE0000310D40CD30CD20CFF3E031DF02D01308A
:102BF000D8005808DE07FC2D5E085D06031D012E77
:102C0000022EEF2D3B2E3B2E5E085D020318092E8F
:102C10000A2E3B2E0B2E01300310D20DD30DD40DF6
:102C2000FF3E031D0C2E0130DE025D085E06031917
:102C30001A2E1B2E332E0130DC025C080739031DCF
:102C4000222E232E0B2E332E332E332E0130031043
:102C5000D70CD60CD50CFF3E031D272E0130D80013
:102C60005808DD07332E5E085D06031D382E392E09
:102C7000262E3B2E3B2EDC1F3E2E3F2E502EFF30AD
:102C8000D206FF30D306FF30D4060130D207003021
:102C900003180130D307003003180130D407502E39
:102CA0005C1F532E542E652EFF30D506FF30D606FE
:102CB000FF30D7060130D507003003180130D607A2
:102CC000003003180130D707652EDC015208D50704
:102CD000530803110318530A03196F2ED60754081B
:102CE00003110318540A0319762ED707D71F792E1C
:102CF0007A2E8E2EFF30D506FF30D606FF30D7064F
:102D00000130D507003003180130D6070030031812
:102D10000130D707DC010314DC0D8E2E5508A0000E
:102D20005608A1005708A2005E08D8005808A30062
:102D30005C08D9005908A4000A128A115F270A16F4
:102D40008A11831203132008D2002108D30022081D
:102D5000D400AA2E080020308400831300088312B8
:102D60000313A600840A0008A700840A0008A8002C
:102D7000840A0008A9000310280D290DAA002A08BA
:102D8000B300B308031DC52EC62ED02E0030A300FD
:102D90000030A2000030A1000030A000FF2FFF2F64
:102DA000233084000008A600840A0008A700840AD3
:102DB0000008A800840A0008A9000310280D290DA6
:102DC000AA002A08B200B208031DE72EE82EF22E50
:102DD0000030A3000030A2000030A1000030A000AD
:102DE000FF2FFF2F2030840000308004840A003041
:102DF0008004840A80308004840A003080042030FB
:102E00008400FF308005840AFF308005840AFF308B
:102E10008005840A0030800523308400003080045F
:102E2000840A00308004840A80308004840A0030E0
:102E3000800423308400FF308005840AFF30800541
:102E4000840AFF308005840A003080050030B1001C
:102E50000030B0000030AF000030AE007F30B30271
:102E6000A0303207A6002608B3022030A6002608AC
:102E7000B2003A2F0130A6000310AE0DAF0DB00D19
:102E8000B10DA60B3C2F233084000008A600840A55
:102E90000008A700840A0008A800840A0008A90006
:102EA000203084000008AA00840A0008AB00840ACD
:102EB0000008AC00840A0008AD0029082D02031D9B
:102EC0006B2F28082C02031D6B2F27082B02031DD4
:102ED0006B2F26082A02031C6E2F6F2F922F233090
:102EE00084000008A600840A0008A700840A0008DD
:102EF000A800840A0008A900203084002608800267
:102F0000840A2708031C270F8002840A2808031C50
:102F1000280F8002840A2908031C290A8002033032
:102F200084022E142030840001300310800D840AA6
:102F3000800D840A800D840A800D84038403840339
:102F4000FF3E031D952F0130B202031DA82FA92FAC
:102F50003A2FB31FAC2FAD2FD22F3308803A9F3EAC
:102F60000318B32FB42FBF2F0030A3000030A200EE
:102F70000030A1000030A000FF2FFF2FBF2F013035
:102F80000310B10CB00CAF0CAE0CFF3E031DC02FF4
:102F90000130A6002608B307031DCF2FD02FBF2F67
:102FA000F62FF62F20303302031CD72FD82FEF2F08
:102FB0000030A3000030A2000030A1000030A000CB
:102FC000FF2FFF2FEF2F0130A6000310AE0DAF0D26
:102FD000B00DB10DA60BE52F0130B302EF2FB308F2
:102FE000031DF32FF42FE32FF62FF62F3108A30044
:102FF0003008A2002F08A1002E08A000FF2F080013
:10300000FF3FFF3FFF3FFF3FFF3FFF3FFF3FFF3FD0
:10301000FF3FFF3FFF3FFF3FFF3FFF3FFF3FFF3FC0
:10302000FF3FFF3FFF3FFF3FFF3FFF3FFF3FFF3FB0
:10303000FF3FFF3FFF3FFF3FFF3FFF3FFF3FFF3FA0
:103E3000FF3F83120313A0001D2F0C1E202F212FE4
:103E40001D2F222F200899000800F701F801831682
:103E50000313C301C401C501C601C701C801C901DB
:103E6000CA01CB01CC0183010A128A15B32A83123D
:103E70000313B300B201331C3E2F3F2F442F3008F1
:103E8000B1003108B207442F0310B00D0310B30C7A
:103E9000B308031D4C2F4D2F3B2F4E2F3208502FB0
:103EA0000800831203132808A0002908A100A2011A
:103EB0008E30AB002B08A300A4010A128A115F27E1
:103EC0000A168A15831203132008A8002108A900E6
:103ED0002208AA006B2F08008E3083120313AC0057
:103EE0002C08AD00812F01300310AB0CAA0CA90CDB
:103EF000A80CFF3E031D742F0130AC002C08AD0749
:103F0000812FFF302B05031D862F872F732F882FBE
:103F10002808A0002908A1002A08A2002D08AC004A
:103F20002C08A300A4010A128A115F270A168A1519
:103F3000831203132008A8002108A9002208AA0060
:103F4000A12F080083120313310830042F042E041C
:103F50000319AB2FAC2FF62FB7010314B70DBE2FEB
:103F60000130B6000310AE0DAF0DB00DB10DB60BA4
:103F7000B22F0130B6003608B707BE2FB11FC12FD0
:103F8000C22FB02FC42FC42F31083502031DD22FEA
:103F900030083402031DD22F2F083302031DD22F05
:103FA0002E083202031CD52FD62FE52F2E08B20281
:103FB0002F08031C2F0FB3023008031C300FB4026C
:103FC0003108031C310FB502E52F01300310B10C8D
:103FD000B00CAF0CAE0CFF3E031DE62F0130B70254
:103FE000031DF32FF42FC42FF62FF62F3508B10041
:103FF0003408B0003308AF003208AE00FF2F0800CD
:10420000FF00FF00FF00FF00FF00FF00FF00FF00B6
:10421000FF00FF00FF00FF00FF00FF00FF00FF00A6
:10422000FF00FF00FF00FF00FF00FF00FF00FF0096
:10423000FF00FF00FF00FF00FF00FF00FF00FF0086
:10424000FF00FF00FF00FF00FF00FF00FF00FF0076
:10425000FF00FF00FF00FF00FF00FF00FF00FF0066
:10426000FF00FF00FF00FF00FF00FF00FF00FF0056
:10427000FF00FF00FF00FF00FF00FF00FF00FF0046
:10428000FF00FF00FF00FF00FF00FF00FF00FF0036
:10429000FF00FF00FF00FF00FF00FF00FF00FF0026
:1042A000FF00FF00FF00FF00FF00FF00FF00FF0016
:1042B000FF00FF00FF00FF00FF00FF00FF00FF0006
:1042C000FF00FF00FF00FF00FF00FF00FF00FF00F6
:1042D000FF00FF00FF00FF00FF00FF00FF00FF00E6
:1042E000FF00FF00FF00FF00FF00FF00FF00FF00D6
:1042F000FF00FF00FF00FF00FF00FF00FF00FF00C6
:10430000FF00FF00FF00FF00FF00FF00FF00FF00B5
:10431000FF00FF00FF00FF00FF00FF00FF00FF00A5
:10432000FF00FF00FF00FF00FF00FF00FF00FF0095
:10433000FF00FF00FF00FF00FF00FF00FF00FF0085
:10434000FF00FF00FF00FF00FF00FF00FF00FF0075
:10435000FF00FF00FF00FF00FF00FF00FF00FF0065
:10436000FF00FF00FF00FF00FF00FF00FF00FF0055
:10437000FF00FF00FF00FF00FF00FF00FF00FF0045
:10438000FF00FF00FF00FF00FF00FF00FF00FF0035
:10439000FF00FF00FF00FF00FF00FF00FF00FF0025
:1043A000FF00FF00FF00FF00FF00FF00FF00FF0015
:1043B000FF00FF00FF00FF00FF00FF00FF00FF0005
:1043C000FF00FF00FF00FF00FF00FF00FF00FF00F5
:1043D000FF00FF00FF00FF00FF00FF00FF00FF00E5
:1043E000FF00FF00FF00FF00FF00FF00FF00FF00D5
:1043F000FF00FF00FF00FF00FF00FF00FF00FF00C5
:02400E003AFF77
:08400000FF3FFF3FFF3FFF3FC0
:00000001FF
