:060000000A128A11122809
:10000800FE00030EF0000408F1000A08F200831253
:1000180003137F08F3000A128A1146290A128A116B
:100028006029FF3083160313860086100611861197
:100038000F3085008312031397121712950196014A
:100048009715171597141714FF308316031392008A
:1000580007118312031391011213921212129211B3
:10006800921012108C10831603138C140B178B1715
:100078008312031386140D30F600AF30F500C1303B
:10008800F400F40B4528F50B4528F60B45286400C9
:100098008312031386100D30F600AF30F500C1301F
:1000A800F400F40B5528F50B5528F60B5528640079
:1000B8008312031386140D30F600AF30F500C130FB
:1000C800F400F40B6528F50B6528F60B6528640029
:1000D8008312031386100D30F600AF30F500C130DF
:1000E800F400F40B7528F50B7528F60B75286400D9
:1000F8008312031306150D30F600AF30F500C1303A
:10010800F400F40B8528F50B8528F60B8528640088
:100118008312031306110D30F600AF30F500C1301D
:10012800F400F40B9528F50B9528F60B9528640038
:100138008312031306150D30F600AF30F500C130F9
:10014800F400F40BA528F50BA528F60BA5286400E8
:100158008312031306110D30F600AF30F500C130DD
:10016800F400F40BB528F50BB528F60BB528640098
:100178008312031386150D30F600AF30F500C13039
:10018800F400F40BC528F50BC528F60BC528640048
:100198008312031386110D30F600AF30F500C1301D
:1001A800F400F40BD528F50BD528F60BD5286400F8
:1001B800831203131215E028831203138614F70120
:1001C8000630F6001330F500B130F400F40BEA28DD
:1001D800F50BEA28F60BEA28F12883120313861098
:1001E8003F30F4007408F7000630F6001330F500CD
:1001F800B130F400F40BFE28F50BFE28F60BFE28B0
:1002080005298312031386147F30F4007408F7005D
:100218000630F6001330F500B130F400F40B122963
:10022800F50B1229F60B12291929831203138610CC
:10023800BE30F4007408F7000630F6001330F500FD
:10024800B130F400F40B2629F50B2629F60B2629E4
:100258002D29831203138614FF30F4007408F70065
:100268000630F6001330F500B130F400F40B3A29EB
:10027800F50B3A29F60B3A294129E028E0280A1219
:100288008A111228831603138C1C4B294C295429D4
:100298007708831203139500971217128C105429AC
:1002A80073088312FF0072088A0071088400700EB8
:1002B8008300FE0E7E0E0900F70183010A128A11DF
:0202C8001528F7
:02400E003AFF77
:00000001FF
