:060000000A128A11122809
:10000800FE00030EF1000408F2000A08F300831250
:1000180003137F08F4000A128A118C280A128A1125
:10002800C6288C3083160313860086100614011721
:100038000B108B158B100B168B178312031386145A
:100048000D30F700AF30F600C130F500F50B2A2867
:10005800F60B2A28F70B2A2864008312031386104C
:100068000D30F700AF30F600C130F500F50B3A2837
:10007800F60B3A28F70B3A28640083120313861408
:100088000D30F700AF30F600C130F500F50B4A2807
:10009800F60B4A28F70B4A286400831203138610CC
:1000A8000D30F700AF30F600C130F500F50B5A28D7
:1000B800F60B5A28F70B5A2864006228F81C6528A2
:1000C800662862280D30F700AF30F600C130F50021
:1000D800F50B6C28F60B6C28F70B6C286400831260
:1000E800031386140D30F700AF30F600C130F50069
:1000F800F50B7C28F60B7C28F70B7C286400831210
:10010800031386106228622862280A128A111228AC
:100118008B1C8F28902894280230F8068B1094287E
:100128000B1C97289828BB280B1C9B289C28BB28AD
:10013800861B9F28A1280130A2280030F0007818DB
:10014800A628A8280130A928003070060319AD2870
:10015800AE28B828861FB128B228B5288614781486
:10016800B82886107810B8280B10BB28BB2874084C
:10017800FF0073088A0072088400710E8300FE0E67
:0E0188007E0E0900F80183010A128A11152863
:02400E003AFF77
:00000001FF
